{
  "fileName": "TodoList.sol",
  "contractName": "TodoList",
  "source": "pragma solidity ^0.6.3;\r\n\r\ncontract TodoList {\r\n    string[] private list;\r\n\r\n    // Emitted when the storeda new item is added to the list\r\n    event ItemAdded(string item);\r\n\r\n    // Adds a new item in the list\r\n    function addItem(string memory newItem) public {\r\n        list.push(newItem);\r\n        emit ItemAdded(newItem);\r\n    }\r\n\r\n    // Gets the item from the list according to index\r\n    function getListItem(uint256 index)\r\n        public\r\n        view\r\n        returns (string memory item)\r\n    {\r\n        return list[index];\r\n    }\r\n}",
  "sourcePath": "contracts\\TodoList.sol",
  "abi": [
    {
      "anonymous": false,
      "inputs": [
        {
          "indexed": false,
          "internalType": "string",
          "name": "item",
          "type": "string"
        }
      ],
      "name": "ItemAdded",
      "type": "event"
    },
    {
      "inputs": [
        {
          "internalType": "string",
          "name": "newItem",
          "type": "string"
        }
      ],
      "name": "addItem",
      "outputs": [],
      "stateMutability": "nonpayable",
      "type": "function"
    },
    {
      "inputs": [
        {
          "internalType": "uint256",
          "name": "index",
          "type": "uint256"
        }
      ],
      "name": "getListItem",
      "outputs": [
        {
          "internalType": "string",
          "name": "item",
          "type": "string"
        }
      ],
      "stateMutability": "view",
      "type": "function"
    }
  ],
  "bytecode": "0x608060405234801561001057600080fd5b50610404806100206000396000f3fe608060405234801561001057600080fd5b50600436106100365760003560e01c806327e9f2941461003b5780636597441e146100f6575b600080fd5b6100f46004803603602081101561005157600080fd5b810190808035906020019064010000000081111561006e57600080fd5b82018360208201111561008057600080fd5b803590602001918460018302840111640100000000831117156100a257600080fd5b91908080601f016020809104026020016040519081016040528093929190818152602001838380828437600081840152601f19601f82011690508083019250505050505050919291929050505061019d565b005b6101226004803603602081101561010c57600080fd5b8101908080359060200190929190505050610278565b6040518080602001828103825283818151815260200191508051906020019080838360005b83811015610162578082015181840152602081019050610147565b50505050905090810190601f16801561018f5780820380516001836020036101000a031916815260200191505b509250505060405180910390f35b6000819080600181540180825580915050600190039060005260206000200160009091909190915090805190602001906101d8929190610331565b507f916dba8b3d0828ab8a4dfe3c959b0179c946497efd42ea7d105d31923d459adf816040518080602001828103825283818151815260200191508051906020019080838360005b8381101561023b578082015181840152602081019050610220565b50505050905090810190601f1680156102685780820380516001836020036101000a031916815260200191505b509250505060405180910390a150565b60606000828154811061028757fe5b906000526020600020018054600181600116156101000203166002900480601f0160208091040260200160405190810160405280929190818152602001828054600181600116156101000203166002900480156103255780601f106102fa57610100808354040283529160200191610325565b820191906000526020600020905b81548152906001019060200180831161030857829003601f168201915b50505050509050919050565b828054600181600116156101000203166002900490600052602060002090601f016020900481019282601f1061037257805160ff19168380011785556103a0565b828001600101855582156103a0579182015b8281111561039f578251825591602001919060010190610384565b5b5090506103ad91906103b1565b5090565b5b808211156103ca5760008160009055506001016103b2565b509056fea2646970667358221220dcb18e46b83c939c51744a04db59b8e0e9367908524c168332526c87f59857f064736f6c634300060c0033",
  "compiler": {
    "name": "solc",
    "version": "0.6.12+commit.27d51765.Emscripten.clang",
    "optimizer": {
      "enabled": false,
      "runs": 200
    },
    "evmVersion": "petersburg"
  }
}